{
  "contractName": "SampleToken",
  "abi": [
    {
      "inputs": [
        {
          "internalType": "address",
          "name": "initialOwner",
          "type": "address"
        }
      ],
      "stateMutability": "nonpayable",
      "type": "constructor"
    },
    {
      "inputs": [],
      "name": "CheckpointUnorderedInsertion",
      "type": "error"
    },
    {
      "inputs": [],
      "name": "ECDSAInvalidSignature",
      "type": "error"
    },
    {
      "inputs": [
        {
          "internalType": "uint256",
          "name": "length",
          "type": "uint256"
        }
      ],
      "name": "ECDSAInvalidSignatureLength",
      "type": "error"
    },
    {
      "inputs": [
        {
          "internalType": "bytes32",
          "name": "s",
          "type": "bytes32"
        }
      ],
      "name": "ECDSAInvalidSignatureS",
      "type": "error"
    },
    {
      "inputs": [
        {
          "internalType": "uint256",
          "name": "increasedSupply",
          "type": "uint256"
        },
        {
          "internalType": "uint256",
          "name": "cap",
          "type": "uint256"
        }
      ],
      "name": "ERC20ExceededSafeSupply",
      "type": "error"
    },
    {
      "inputs": [
        {
          "internalType": "address",
          "name": "spender",
          "type": "address"
        },
        {
          "internalType": "uint256",
          "name": "allowance",
          "type": "uint256"
        },
        {
          "internalType": "uint256",
          "name": "needed",
          "type": "uint256"
        }
      ],
      "name": "ERC20InsufficientAllowance",
      "type": "error"
    },
    {
      "inputs": [
        {
          "internalType": "address",
          "name": "sender",
          "type": "address"
        },
        {
          "internalType": "uint256",
          "name": "balance",
          "type": "uint256"
        },
        {
          "internalType": "uint256",
          "name": "needed",
          "type": "uint256"
        }
      ],
      "name": "ERC20InsufficientBalance",
      "type": "error"
    },
    {
      "inputs": [
        {
          "internalType": "address",
          "name": "approver",
          "type": "address"
        }
      ],
      "name": "ERC20InvalidApprover",
      "type": "error"
    },
    {
      "inputs": [
        {
          "internalType": "address",
          "name": "receiver",
          "type": "address"
        }
      ],
      "name": "ERC20InvalidReceiver",
      "type": "error"
    },
    {
      "inputs": [
        {
          "internalType": "address",
          "name": "sender",
          "type": "address"
        }
      ],
      "name": "ERC20InvalidSender",
      "type": "error"
    },
    {
      "inputs": [
        {
          "internalType": "address",
          "name": "spender",
          "type": "address"
        }
      ],
      "name": "ERC20InvalidSpender",
      "type": "error"
    },
    {
      "inputs": [
        {
          "internalType": "uint256",
          "name": "deadline",
          "type": "uint256"
        }
      ],
      "name": "ERC2612ExpiredSignature",
      "type": "error"
    },
    {
      "inputs": [
        {
          "internalType": "address",
          "name": "signer",
          "type": "address"
        },
        {
          "internalType": "address",
          "name": "owner",
          "type": "address"
        }
      ],
      "name": "ERC2612InvalidSigner",
      "type": "error"
    },
    {
      "inputs": [
        {
          "internalType": "uint256",
          "name": "timepoint",
          "type": "uint256"
        },
        {
          "internalType": "uint48",
          "name": "clock",
          "type": "uint48"
        }
      ],
      "name": "ERC5805FutureLookup",
      "type": "error"
    },
    {
      "inputs": [],
      "name": "ERC6372InconsistentClock",
      "type": "error"
    },
    {
      "inputs": [
        {
          "internalType": "address",
          "name": "account",
          "type": "address"
        },
        {
          "internalType": "uint256",
          "name": "currentNonce",
          "type": "uint256"
        }
      ],
      "name": "InvalidAccountNonce",
      "type": "error"
    },
    {
      "inputs": [],
      "name": "InvalidShortString",
      "type": "error"
    },
    {
      "inputs": [
        {
          "internalType": "address",
          "name": "owner",
          "type": "address"
        }
      ],
      "name": "OwnableInvalidOwner",
      "type": "error"
    },
    {
      "inputs": [
        {
          "internalType": "address",
          "name": "account",
          "type": "address"
        }
      ],
      "name": "OwnableUnauthorizedAccount",
      "type": "error"
    },
    {
      "inputs": [
        {
          "internalType": "uint8",
          "name": "bits",
          "type": "uint8"
        },
        {
          "internalType": "uint256",
          "name": "value",
          "type": "uint256"
        }
      ],
      "name": "SafeCastOverflowedUintDowncast",
      "type": "error"
    },
    {
      "inputs": [
        {
          "internalType": "string",
          "name": "str",
          "type": "string"
        }
      ],
      "name": "StringTooLong",
      "type": "error"
    },
    {
      "inputs": [
        {
          "internalType": "uint256",
          "name": "expiry",
          "type": "uint256"
        }
      ],
      "name": "VotesExpiredSignature",
      "type": "error"
    },
    {
      "anonymous": false,
      "inputs": [
        {
          "indexed": true,
          "internalType": "address",
          "name": "owner",
          "type": "address"
        },
        {
          "indexed": true,
          "internalType": "address",
          "name": "spender",
          "type": "address"
        },
        {
          "indexed": false,
          "internalType": "uint256",
          "name": "value",
          "type": "uint256"
        }
      ],
      "name": "Approval",
      "type": "event"
    },
    {
      "anonymous": false,
      "inputs": [
        {
          "indexed": true,
          "internalType": "address",
          "name": "delegator",
          "type": "address"
        },
        {
          "indexed": true,
          "internalType": "address",
          "name": "fromDelegate",
          "type": "address"
        },
        {
          "indexed": true,
          "internalType": "address",
          "name": "toDelegate",
          "type": "address"
        }
      ],
      "name": "DelegateChanged",
      "type": "event"
    },
    {
      "anonymous": false,
      "inputs": [
        {
          "indexed": true,
          "internalType": "address",
          "name": "delegate",
          "type": "address"
        },
        {
          "indexed": false,
          "internalType": "uint256",
          "name": "previousVotes",
          "type": "uint256"
        },
        {
          "indexed": false,
          "internalType": "uint256",
          "name": "newVotes",
          "type": "uint256"
        }
      ],
      "name": "DelegateVotesChanged",
      "type": "event"
    },
    {
      "anonymous": false,
      "inputs": [],
      "name": "EIP712DomainChanged",
      "type": "event"
    },
    {
      "anonymous": false,
      "inputs": [
        {
          "indexed": true,
          "internalType": "address",
          "name": "previousOwner",
          "type": "address"
        },
        {
          "indexed": true,
          "internalType": "address",
          "name": "newOwner",
          "type": "address"
        }
      ],
      "name": "OwnershipTransferred",
      "type": "event"
    },
    {
      "anonymous": false,
      "inputs": [
        {
          "indexed": true,
          "internalType": "address",
          "name": "from",
          "type": "address"
        },
        {
          "indexed": true,
          "internalType": "address",
          "name": "to",
          "type": "address"
        },
        {
          "indexed": false,
          "internalType": "uint256",
          "name": "value",
          "type": "uint256"
        }
      ],
      "name": "Transfer",
      "type": "event"
    },
    {
      "inputs": [],
      "name": "CLOCK_MODE",
      "outputs": [
        {
          "internalType": "string",
          "name": "",
          "type": "string"
        }
      ],
      "stateMutability": "view",
      "type": "function"
    },
    {
      "inputs": [],
      "name": "DOMAIN_SEPARATOR",
      "outputs": [
        {
          "internalType": "bytes32",
          "name": "",
          "type": "bytes32"
        }
      ],
      "stateMutability": "view",
      "type": "function"
    },
    {
      "inputs": [
        {
          "internalType": "address",
          "name": "owner",
          "type": "address"
        },
        {
          "internalType": "address",
          "name": "spender",
          "type": "address"
        }
      ],
      "name": "allowance",
      "outputs": [
        {
          "internalType": "uint256",
          "name": "",
          "type": "uint256"
        }
      ],
      "stateMutability": "view",
      "type": "function"
    },
    {
      "inputs": [
        {
          "internalType": "address",
          "name": "spender",
          "type": "address"
        },
        {
          "internalType": "uint256",
          "name": "value",
          "type": "uint256"
        }
      ],
      "name": "approve",
      "outputs": [
        {
          "internalType": "bool",
          "name": "",
          "type": "bool"
        }
      ],
      "stateMutability": "nonpayable",
      "type": "function"
    },
    {
      "inputs": [
        {
          "internalType": "address",
          "name": "account",
          "type": "address"
        }
      ],
      "name": "balanceOf",
      "outputs": [
        {
          "internalType": "uint256",
          "name": "",
          "type": "uint256"
        }
      ],
      "stateMutability": "view",
      "type": "function"
    },
    {
      "inputs": [
        {
          "internalType": "uint256",
          "name": "value",
          "type": "uint256"
        }
      ],
      "name": "burn",
      "outputs": [],
      "stateMutability": "nonpayable",
      "type": "function"
    },
    {
      "inputs": [
        {
          "internalType": "address",
          "name": "account",
          "type": "address"
        },
        {
          "internalType": "uint256",
          "name": "value",
          "type": "uint256"
        }
      ],
      "name": "burnFrom",
      "outputs": [],
      "stateMutability": "nonpayable",
      "type": "function"
    },
    {
      "inputs": [
        {
          "internalType": "address",
          "name": "account",
          "type": "address"
        },
        {
          "internalType": "uint32",
          "name": "pos",
          "type": "uint32"
        }
      ],
      "name": "checkpoints",
      "outputs": [
        {
          "components": [
            {
              "internalType": "uint48",
              "name": "_key",
              "type": "uint48"
            },
            {
              "internalType": "uint208",
              "name": "_value",
              "type": "uint208"
            }
          ],
          "internalType": "struct Checkpoints.Checkpoint208",
          "name": "",
          "type": "tuple"
        }
      ],
      "stateMutability": "view",
      "type": "function"
    },
    {
      "inputs": [],
      "name": "clock",
      "outputs": [
        {
          "internalType": "uint48",
          "name": "",
          "type": "uint48"
        }
      ],
      "stateMutability": "view",
      "type": "function"
    },
    {
      "inputs": [],
      "name": "decimals",
      "outputs": [
        {
          "internalType": "uint8",
          "name": "",
          "type": "uint8"
        }
      ],
      "stateMutability": "view",
      "type": "function"
    },
    {
      "inputs": [
        {
          "internalType": "address",
          "name": "delegatee",
          "type": "address"
        }
      ],
      "name": "delegate",
      "outputs": [],
      "stateMutability": "nonpayable",
      "type": "function"
    },
    {
      "inputs": [
        {
          "internalType": "address",
          "name": "delegatee",
          "type": "address"
        },
        {
          "internalType": "uint256",
          "name": "nonce",
          "type": "uint256"
        },
        {
          "internalType": "uint256",
          "name": "expiry",
          "type": "uint256"
        },
        {
          "internalType": "uint8",
          "name": "v",
          "type": "uint8"
        },
        {
          "internalType": "bytes32",
          "name": "r",
          "type": "bytes32"
        },
        {
          "internalType": "bytes32",
          "name": "s",
          "type": "bytes32"
        }
      ],
      "name": "delegateBySig",
      "outputs": [],
      "stateMutability": "nonpayable",
      "type": "function"
    },
    {
      "inputs": [
        {
          "internalType": "address",
          "name": "account",
          "type": "address"
        }
      ],
      "name": "delegates",
      "outputs": [
        {
          "internalType": "address",
          "name": "",
          "type": "address"
        }
      ],
      "stateMutability": "view",
      "type": "function"
    },
    {
      "inputs": [],
      "name": "eip712Domain",
      "outputs": [
        {
          "internalType": "bytes1",
          "name": "fields",
          "type": "bytes1"
        },
        {
          "internalType": "string",
          "name": "name",
          "type": "string"
        },
        {
          "internalType": "string",
          "name": "version",
          "type": "string"
        },
        {
          "internalType": "uint256",
          "name": "chainId",
          "type": "uint256"
        },
        {
          "internalType": "address",
          "name": "verifyingContract",
          "type": "address"
        },
        {
          "internalType": "bytes32",
          "name": "salt",
          "type": "bytes32"
        },
        {
          "internalType": "uint256[]",
          "name": "extensions",
          "type": "uint256[]"
        }
      ],
      "stateMutability": "view",
      "type": "function"
    },
    {
      "inputs": [
        {
          "internalType": "uint256",
          "name": "timepoint",
          "type": "uint256"
        }
      ],
      "name": "getPastTotalSupply",
      "outputs": [
        {
          "internalType": "uint256",
          "name": "",
          "type": "uint256"
        }
      ],
      "stateMutability": "view",
      "type": "function"
    },
    {
      "inputs": [
        {
          "internalType": "address",
          "name": "account",
          "type": "address"
        },
        {
          "internalType": "uint256",
          "name": "timepoint",
          "type": "uint256"
        }
      ],
      "name": "getPastVotes",
      "outputs": [
        {
          "internalType": "uint256",
          "name": "",
          "type": "uint256"
        }
      ],
      "stateMutability": "view",
      "type": "function"
    },
    {
      "inputs": [
        {
          "internalType": "address",
          "name": "account",
          "type": "address"
        }
      ],
      "name": "getVotes",
      "outputs": [
        {
          "internalType": "uint256",
          "name": "",
          "type": "uint256"
        }
      ],
      "stateMutability": "view",
      "type": "function"
    },
    {
      "inputs": [],
      "name": "name",
      "outputs": [
        {
          "internalType": "string",
          "name": "",
          "type": "string"
        }
      ],
      "stateMutability": "view",
      "type": "function"
    },
    {
      "inputs": [
        {
          "internalType": "address",
          "name": "account",
          "type": "address"
        }
      ],
      "name": "numCheckpoints",
      "outputs": [
        {
          "internalType": "uint32",
          "name": "",
          "type": "uint32"
        }
      ],
      "stateMutability": "view",
      "type": "function"
    },
    {
      "inputs": [],
      "name": "owner",
      "outputs": [
        {
          "internalType": "address",
          "name": "",
          "type": "address"
        }
      ],
      "stateMutability": "view",
      "type": "function"
    },
    {
      "inputs": [
        {
          "internalType": "address",
          "name": "owner",
          "type": "address"
        },
        {
          "internalType": "address",
          "name": "spender",
          "type": "address"
        },
        {
          "internalType": "uint256",
          "name": "value",
          "type": "uint256"
        },
        {
          "internalType": "uint256",
          "name": "deadline",
          "type": "uint256"
        },
        {
          "internalType": "uint8",
          "name": "v",
          "type": "uint8"
        },
        {
          "internalType": "bytes32",
          "name": "r",
          "type": "bytes32"
        },
        {
          "internalType": "bytes32",
          "name": "s",
          "type": "bytes32"
        }
      ],
      "name": "permit",
      "outputs": [],
      "stateMutability": "nonpayable",
      "type": "function"
    },
    {
      "inputs": [],
      "name": "renounceOwnership",
      "outputs": [],
      "stateMutability": "nonpayable",
      "type": "function"
    },
    {
      "inputs": [],
      "name": "symbol",
      "outputs": [
        {
          "internalType": "string",
          "name": "",
          "type": "string"
        }
      ],
      "stateMutability": "view",
      "type": "function"
    },
    {
      "inputs": [],
      "name": "totalSupply",
      "outputs": [
        {
          "internalType": "uint256",
          "name": "",
          "type": "uint256"
        }
      ],
      "stateMutability": "view",
      "type": "function"
    },
    {
      "inputs": [
        {
          "internalType": "address",
          "name": "to",
          "type": "address"
        },
        {
          "internalType": "uint256",
          "name": "value",
          "type": "uint256"
        }
      ],
      "name": "transfer",
      "outputs": [
        {
          "internalType": "bool",
          "name": "",
          "type": "bool"
        }
      ],
      "stateMutability": "nonpayable",
      "type": "function"
    },
    {
      "inputs": [
        {
          "internalType": "address",
          "name": "from",
          "type": "address"
        },
        {
          "internalType": "address",
          "name": "to",
          "type": "address"
        },
        {
          "internalType": "uint256",
          "name": "value",
          "type": "uint256"
        }
      ],
      "name": "transferFrom",
      "outputs": [
        {
          "internalType": "bool",
          "name": "",
          "type": "bool"
        }
      ],
      "stateMutability": "nonpayable",
      "type": "function"
    },
    {
      "inputs": [
        {
          "internalType": "address",
          "name": "newOwner",
          "type": "address"
        }
      ],
      "name": "transferOwnership",
      "outputs": [],
      "stateMutability": "nonpayable",
      "type": "function"
    },
    {
      "inputs": [
        {
          "internalType": "address",
          "name": "to",
          "type": "address"
        },
        {
          "internalType": "uint256",
          "name": "amount",
          "type": "uint256"
        }
      ],
      "name": "mint",
      "outputs": [],
      "stateMutability": "nonpayable",
      "type": "function"
    },
    {
      "inputs": [
        {
          "internalType": "address",
          "name": "owner",
          "type": "address"
        }
      ],
      "name": "nonces",
      "outputs": [
        {
          "internalType": "uint256",
          "name": "",
          "type": "uint256"
        }
      ],
      "stateMutability": "view",
      "type": "function"
    }
  ],
  "bytecode": "0x61016060405234801562000011575f80fd5b5060405162004503380380620045038339818101604052810190620000379190620004c0565b6040518060400160405280600b81526020017f53616d706c65546f6b656e000000000000000000000000000000000000000000815250806040518060400160405280600181526020017f3100000000000000000000000000000000000000000000000000000000000000815250836040518060400160405280600b81526020017f53616d706c65546f6b656e0000000000000000000000000000000000000000008152506040518060400160405280600381526020017f4d544b0000000000000000000000000000000000000000000000000000000000815250816003908162000122919062000754565b50806004908162000134919062000754565b5050505f73ffffffffffffffffffffffffffffffffffffffff168173ffffffffffffffffffffffffffffffffffffffff1603620001aa575f6040517f1e4fbdf7000000000000000000000000000000000000000000000000000000008152600401620001a1919062000849565b60405180910390fd5b620001bb816200027460201b60201c565b50620001d26006836200033760201b90919060201c565b6101208181525050620001f06007826200033760201b90919060201c565b6101408181525050818051906020012060e08181525050808051906020012061010081815250504660a081815250506200022f6200038c60201b60201c565b608081815250503073ffffffffffffffffffffffffffffffffffffffff1660c08173ffffffffffffffffffffffffffffffffffffffff16815250505050505062000a34565b5f60055f9054906101000a900473ffffffffffffffffffffffffffffffffffffffff1690508160055f6101000a81548173ffffffffffffffffffffffffffffffffffffffff021916908373ffffffffffffffffffffffffffffffffffffffff1602179055508173ffffffffffffffffffffffffffffffffffffffff168173ffffffffffffffffffffffffffffffffffffffff167f8be0079c531659141344cd1fd0a4f28419497f9722a3daafe3b4186f6b6457e060405160405180910390a35050565b5f6020835110156200035c576200035483620003e860201b60201c565b905062000386565b826200036e836200045260201b60201c565b5f0190816200037e919062000754565b5060ff5f1b90505b92915050565b5f7f8b73c3c69bb8fe3d512ecc4cf759cc79239f7b179b0ffacaa9a75d522b39400f60e051610100514630604051602001620003cd9594939291906200088f565b60405160208183030381529060405280519060200120905090565b5f80829050601f815111156200043757826040517f305a27a90000000000000000000000000000000000000000000000000000000081526004016200042e919062000974565b60405180910390fd5b8051816200044590620009c5565b5f1c175f1b915050919050565b5f819050919050565b5f80fd5b5f73ffffffffffffffffffffffffffffffffffffffff82169050919050565b5f6200048a826200045f565b9050919050565b6200049c816200047e565b8114620004a7575f80fd5b50565b5f81519050620004ba8162000491565b92915050565b5f60208284031215620004d857620004d76200045b565b5b5f620004e784828501620004aa565b91505092915050565b5f81519050919050565b7f4e487b71000000000000000000000000000000000000000000000000000000005f52604160045260245ffd5b7f4e487b71000000000000000000000000000000000000000000000000000000005f52602260045260245ffd5b5f60028204905060018216806200056c57607f821691505b60208210810362000582576200058162000527565b5b50919050565b5f819050815f5260205f209050919050565b5f6020601f8301049050919050565b5f82821b905092915050565b5f60088302620005e67fffffffffffffffffffffffffffffffffffffffffffffffffffffffffffffffff82620005a9565b620005f28683620005a9565b95508019841693508086168417925050509392505050565b5f819050919050565b5f819050919050565b5f6200063c6200063662000630846200060a565b62000613565b6200060a565b9050919050565b5f819050919050565b62000657836200061c565b6200066f620006668262000643565b848454620005b5565b825550505050565b5f90565b6200068562000677565b620006928184846200064c565b505050565b5b81811015620006b957620006ad5f826200067b565b60018101905062000698565b5050565b601f8211156200070857620006d28162000588565b620006dd846200059a565b81016020851015620006ed578190505b62000705620006fc856200059a565b83018262000697565b50505b505050565b5f82821c905092915050565b5f6200072a5f19846008026200070d565b1980831691505092915050565b5f62000744838362000719565b9150826002028217905092915050565b6200075f82620004f0565b67ffffffffffffffff8111156200077b576200077a620004fa565b5b62000787825462000554565b62000794828285620006bd565b5f60209050601f831160018114620007ca575f8415620007b5578287015190505b620007c1858262000737565b86555062000830565b601f198416620007da8662000588565b5f5b828110156200080357848901518255600182019150602085019450602081019050620007dc565b868310156200082357848901516200081f601f89168262000719565b8355505b6001600288020188555050505b505050505050565b62000843816200047e565b82525050565b5f6020820190506200085e5f83018462000838565b92915050565b5f819050919050565b620008788162000864565b82525050565b62000889816200060a565b82525050565b5f60a082019050620008a45f8301886200086d565b620008b360208301876200086d565b620008c260408301866200086d565b620008d160608301856200087e565b620008e0608083018462000838565b9695505050505050565b5f82825260208201905092915050565b5f5b8381101562000919578082015181840152602081019050620008fc565b5f8484015250505050565b5f601f19601f8301169050919050565b5f6200094082620004f0565b6200094c8185620008ea565b93506200095e818560208601620008fa565b620009698162000924565b840191505092915050565b5f6020820190508181035f8301526200098e818462000934565b905092915050565b5f81519050919050565b5f819050602082019050919050565b5f620009bc825162000864565b80915050919050565b5f620009d18262000996565b82620009dd84620009a0565b9050620009ea81620009af565b9250602082101562000a2d5762000a287fffffffffffffffffffffffffffffffffffffffffffffffffffffffffffffffff83602003600802620005a9565b831692505b5050919050565b60805160a05160c05160e051610100516101205161014051613a7d62000a865f395f61165f01525f61162401525f611a6701525f611a4601525f61104301525f61109901525f6110c20152613a7d5ff3fe608060405234801561000f575f80fd5b50600436106101cd575f3560e01c8063715018a61161010257806395d89b41116100a0578063d505accf1161006f578063d505accf1461055b578063dd62ed3e14610577578063f1127ed8146105a7578063f2fde38b146105d7576101cd565b806395d89b41146104c15780639ab24eb0146104df578063a9059cbb1461050f578063c3cda5201461053f576101cd565b806384b0196e116100dc57806384b0196e146104315780638da5cb5b146104555780638e539e8c1461047357806391ddadf4146104a3576101cd565b8063715018a6146103db57806379cc6790146103e55780637ecebe0014610401576101cd565b806340c10f191161016f578063587cde1e11610149578063587cde1e1461032f5780635c19a95c1461035f5780636fcfff451461037b57806370a08231146103ab576101cd565b806340c10f19146102d957806342966c68146102f55780634bf5d7e914610311576101cd565b806323b872dd116101ab57806323b872dd1461023d578063313ce5671461026d5780633644e5151461028b5780633a46b1a8146102a9576101cd565b806306fdde03146101d1578063095ea7b3146101ef57806318160ddd1461021f575b5f80fd5b6101d96105f3565b6040516101e69190612da0565b60405180910390f35b61020960048036038101906102049190612e51565b610683565b6040516102169190612ea9565b60405180910390f35b6102276106a5565b6040516102349190612ed1565b60405180910390f35b61025760048036038101906102529190612eea565b6106ae565b6040516102649190612ea9565b60405180910390f35b6102756106dc565b6040516102829190612f55565b60405180910390f35b6102936106e4565b6040516102a09190612f86565b60405180910390f35b6102c360048036038101906102be9190612e51565b6106f2565b6040516102d09190612ed1565b60405180910390f35b6102f360048036038101906102ee9190612e51565b61076e565b005b61030f600480360381019061030a9190612f9f565b610784565b005b610319610798565b6040516103269190612da0565b60405180910390f35b61034960048036038101906103449190612fca565b61082c565b6040516103569190613004565b60405180910390f35b61037960048036038101906103749190612fca565b610891565b005b61039560048036038101906103909190612fca565b6108aa565b6040516103a2919061303b565b60405180910390f35b6103c560048036038101906103c09190612fca565b6108bb565b6040516103d29190612ed1565b60405180910390f35b6103e3610900565b005b6103ff60048036038101906103fa9190612e51565b610913565b005b61041b60048036038101906104169190612fca565b610933565b6040516104289190612ed1565b60405180910390f35b610439610944565b60405161044c9796959493929190613145565b60405180910390f35b61045d6109e9565b60405161046a9190613004565b60405180910390f35b61048d60048036038101906104889190612f9f565b610a11565b60405161049a9190612ed1565b60405180910390f35b6104ab610a51565b6040516104b891906131e7565b60405180910390f35b6104c9610a5f565b6040516104d69190612da0565b60405180910390f35b6104f960048036038101906104f49190612fca565b610aef565b6040516105069190612ed1565b60405180910390f35b61052960048036038101906105249190612e51565b610b58565b6040516105369190612ea9565b60405180910390f35b61055960048036038101906105549190613254565b610b7a565b005b610575600480360381019061057091906132dd565b610c3f565b005b610591600480360381019061058c919061337a565b610d84565b60405161059e9190612ed1565b60405180910390f35b6105c160048036038101906105bc91906133e2565b610e06565b6040516105ce9190613490565b60405180910390f35b6105f160048036038101906105ec9190612fca565b610e20565b005b606060038054610602906134d6565b80601f016020809104026020016040519081016040528092919081815260200182805461062e906134d6565b80156106795780601f1061065057610100808354040283529160200191610679565b820191905f5260205f20905b81548152906001019060200180831161065c57829003601f168201915b5050505050905090565b5f8061068d610ea4565b905061069a818585610eab565b600191505092915050565b5f600254905090565b5f806106b8610ea4565b90506106c5858285610ebd565b6106d0858585610f50565b60019150509392505050565b5f6012905090565b5f6106ed611040565b905090565b5f61074a6106ff836110f6565b600a5f8673ffffffffffffffffffffffffffffffffffffffff1673ffffffffffffffffffffffffffffffffffffffff1681526020019081526020015f2061116190919063ffffffff16565b79ffffffffffffffffffffffffffffffffffffffffffffffffffff16905092915050565b61077661124e565b61078082826112d5565b5050565b61079561078f610ea4565b82611354565b50565b60606107a26113d3565b65ffffffffffff166107b2610a51565b65ffffffffffff16146107f1576040517f6ff0714000000000000000000000000000000000000000000000000000000000815260040160405180910390fd5b6040518060400160405280601d81526020017f6d6f64653d626c6f636b6e756d6265722666726f6d3d64656661756c74000000815250905090565b5f60095f8373ffffffffffffffffffffffffffffffffffffffff1673ffffffffffffffffffffffffffffffffffffffff1681526020019081526020015f205f9054906101000a900473ffffffffffffffffffffffffffffffffffffffff169050919050565b5f61089a610ea4565b90506108a681836113e2565b5050565b5f6108b4826114f2565b9050919050565b5f805f8373ffffffffffffffffffffffffffffffffffffffff1673ffffffffffffffffffffffffffffffffffffffff1681526020019081526020015f20549050919050565b61090861124e565b6109115f611547565b565b6109258261091f610ea4565b83610ebd565b61092f8282611354565b5050565b5f61093d8261160a565b9050919050565b5f6060805f805f606061095561161b565b61095d611656565b46305f801b5f67ffffffffffffffff81111561097c5761097b613506565b5b6040519080825280602002602001820160405280156109aa5781602001602082028036833780820191505090505b507f0f00000000000000000000000000000000000000000000000000000000000000959493929190965096509650965096509650965090919293949596565b5f60055f9054906101000a900473ffffffffffffffffffffffffffffffffffffffff16905090565b5f610a2e610a1e836110f6565b600b61116190919063ffffffff16565b79ffffffffffffffffffffffffffffffffffffffffffffffffffff169050919050565b5f610a5a6113d3565b905090565b606060048054610a6e906134d6565b80601f0160208091040260200160405190810160405280929190818152602001828054610a9a906134d6565b8015610ae55780601f10610abc57610100808354040283529160200191610ae5565b820191905f5260205f20905b815481529060010190602001808311610ac857829003601f168201915b5050505050905090565b5f610b35600a5f8473ffffffffffffffffffffffffffffffffffffffff1673ffffffffffffffffffffffffffffffffffffffff1681526020019081526020015f20611691565b79ffffffffffffffffffffffffffffffffffffffffffffffffffff169050919050565b5f80610b62610ea4565b9050610b6f818585610f50565b600191505092915050565b83421115610bbf57836040517f4683af0e000000000000000000000000000000000000000000000000000000008152600401610bb69190612ed1565b60405180910390fd5b5f610c20610c187fe48329057bfd03d55e49b547132e39cffd9c1820ad7b9d4c5307691425d15adf898989604051602001610bfd9493929190613533565b604051602081830303815290604052805190602001206116f3565b85858561170c565b9050610c2c818761173a565b610c3681886113e2565b50505050505050565b83421115610c8457836040517f62791302000000000000000000000000000000000000000000000000000000008152600401610c7b9190612ed1565b60405180910390fd5b5f7f6e71edae12b1b97f4d1f60370fef10105fa2faae0126114a169c64845d6126c9888888610cb28c611791565b89604051602001610cc896959493929190613576565b6040516020818303038152906040528051906020012090505f610cea826116f3565b90505f610cf98287878761170c565b90508973ffffffffffffffffffffffffffffffffffffffff168173ffffffffffffffffffffffffffffffffffffffff1614610d6d57808a6040517f4b800e46000000000000000000000000000000000000000000000000000000008152600401610d649291906135d5565b60405180910390fd5b610d788a8a8a610eab565b50505050505050505050565b5f60015f8473ffffffffffffffffffffffffffffffffffffffff1673ffffffffffffffffffffffffffffffffffffffff1681526020019081526020015f205f8373ffffffffffffffffffffffffffffffffffffffff1673ffffffffffffffffffffffffffffffffffffffff1681526020019081526020015f2054905092915050565b610e0e612cda565b610e1883836117e4565b905092915050565b610e2861124e565b5f73ffffffffffffffffffffffffffffffffffffffff168173ffffffffffffffffffffffffffffffffffffffff1603610e98575f6040517f1e4fbdf7000000000000000000000000000000000000000000000000000000008152600401610e8f9190613004565b60405180910390fd5b610ea181611547565b50565b5f33905090565b610eb88383836001611843565b505050565b5f610ec88484610d84565b90507fffffffffffffffffffffffffffffffffffffffffffffffffffffffffffffffff811015610f4a5781811015610f3b578281836040517ffb8f41b2000000000000000000000000000000000000000000000000000000008152600401610f32939291906135fc565b60405180910390fd5b610f4984848484035f611843565b5b50505050565b5f73ffffffffffffffffffffffffffffffffffffffff168373ffffffffffffffffffffffffffffffffffffffff1603610fc0575f6040517f96c6fd1e000000000000000000000000000000000000000000000000000000008152600401610fb79190613004565b60405180910390fd5b5f73ffffffffffffffffffffffffffffffffffffffff168273ffffffffffffffffffffffffffffffffffffffff1603611030575f6040517fec442f050000000000000000000000000000000000000000000000000000000081526004016110279190613004565b60405180910390fd5b61103b838383611a12565b505050565b5f7f000000000000000000000000000000000000000000000000000000000000000073ffffffffffffffffffffffffffffffffffffffff163073ffffffffffffffffffffffffffffffffffffffff161480156110bb57507f000000000000000000000000000000000000000000000000000000000000000046145b156110e8577f000000000000000000000000000000000000000000000000000000000000000090506110f3565b6110f0611a22565b90505b90565b5f80611100610a51565b90508065ffffffffffff1683106111505782816040517fecd3f81e000000000000000000000000000000000000000000000000000000008152600401611147929190613631565b60405180910390fd5b61115983611ab7565b915050919050565b5f80835f018054905090505f8082905060058311156111e2575f61118484611b10565b8461118f9190613685565b905061119d875f0182611caa565b5f015f9054906101000a900465ffffffffffff1665ffffffffffff168665ffffffffffff1610156111d0578091506111e0565b6001816111dd91906136b8565b92505b505b5f6111f1875f01878585611cbc565b90505f811461124057611212875f0160018361120d9190613685565b611caa565b5f0160069054906101000a900479ffffffffffffffffffffffffffffffffffffffffffffffffffff16611242565b5f5b94505050505092915050565b611256610ea4565b73ffffffffffffffffffffffffffffffffffffffff166112746109e9565b73ffffffffffffffffffffffffffffffffffffffff16146112d357611297610ea4565b6040517f118cdaa70000000000000000000000000000000000000000000000000000000081526004016112ca9190613004565b60405180910390fd5b565b5f73ffffffffffffffffffffffffffffffffffffffff168273ffffffffffffffffffffffffffffffffffffffff1603611345575f6040517fec442f0500000000000000000000000000000000000000000000000000000000815260040161133c9190613004565b60405180910390fd5b6113505f8383611a12565b5050565b5f73ffffffffffffffffffffffffffffffffffffffff168273ffffffffffffffffffffffffffffffffffffffff16036113c4575f6040517f96c6fd1e0000000000000000000000000000000000000000000000000000000081526004016113bb9190613004565b60405180910390fd5b6113cf825f83611a12565b5050565b5f6113dd43611ab7565b905090565b5f6113ec8361082c565b90508160095f8573ffffffffffffffffffffffffffffffffffffffff1673ffffffffffffffffffffffffffffffffffffffff1681526020019081526020015f205f6101000a81548173ffffffffffffffffffffffffffffffffffffffff021916908373ffffffffffffffffffffffffffffffffffffffff1602179055508173ffffffffffffffffffffffffffffffffffffffff168173ffffffffffffffffffffffffffffffffffffffff168473ffffffffffffffffffffffffffffffffffffffff167f3134e8a2e6d97e929a7e54011ea5485d7d196dd5f0ba4d4ef95803e8e3fc257f60405160405180910390a46114ed81836114e886611d31565b611d42565b505050565b5f61154061153b600a5f8573ffffffffffffffffffffffffffffffffffffffff1673ffffffffffffffffffffffffffffffffffffffff1681526020019081526020015f20611fb2565b611fc1565b9050919050565b5f60055f9054906101000a900473ffffffffffffffffffffffffffffffffffffffff1690508160055f6101000a81548173ffffffffffffffffffffffffffffffffffffffff021916908373ffffffffffffffffffffffffffffffffffffffff1602179055508173ffffffffffffffffffffffffffffffffffffffff168173ffffffffffffffffffffffffffffffffffffffff167f8be0079c531659141344cd1fd0a4f28419497f9722a3daafe3b4186f6b6457e060405160405180910390a35050565b5f61161482612018565b9050919050565b606061165160067f000000000000000000000000000000000000000000000000000000000000000061205e90919063ffffffff16565b905090565b606061168c60077f000000000000000000000000000000000000000000000000000000000000000061205e90919063ffffffff16565b905090565b5f80825f018054905090505f81146116e9576116bb835f016001836116b69190613685565b611caa565b5f0160069054906101000a900479ffffffffffffffffffffffffffffffffffffffffffffffffffff166116eb565b5f5b915050919050565b5f6117056116ff611040565b8361210b565b9050919050565b5f805f8061171c8888888861214b565b92509250925061172c8282612232565b829350505050949350505050565b5f61174483611791565b905080821461178c5782816040517f752d88c00000000000000000000000000000000000000000000000000000000081526004016117839291906136eb565b60405180910390fd5b505050565b5f60085f8373ffffffffffffffffffffffffffffffffffffffff1673ffffffffffffffffffffffffffffffffffffffff1681526020019081526020015f205f815480929190600101919050559050919050565b6117ec612cda565b61183b82600a5f8673ffffffffffffffffffffffffffffffffffffffff1673ffffffffffffffffffffffffffffffffffffffff1681526020019081526020015f2061239490919063ffffffff16565b905092915050565b5f73ffffffffffffffffffffffffffffffffffffffff168473ffffffffffffffffffffffffffffffffffffffff16036118b3575f6040517fe602df050000000000000000000000000000000000000000000000000000000081526004016118aa9190613004565b60405180910390fd5b5f73ffffffffffffffffffffffffffffffffffffffff168373ffffffffffffffffffffffffffffffffffffffff1603611923575f6040517f94280d6200000000000000000000000000000000000000000000000000000000815260040161191a9190613004565b60405180910390fd5b8160015f8673ffffffffffffffffffffffffffffffffffffffff1673ffffffffffffffffffffffffffffffffffffffff1681526020019081526020015f205f8573ffffffffffffffffffffffffffffffffffffffff1673ffffffffffffffffffffffffffffffffffffffff1681526020019081526020015f20819055508015611a0c578273ffffffffffffffffffffffffffffffffffffffff168473ffffffffffffffffffffffffffffffffffffffff167f8c5be1e5ebec7d5bd14f71427d1e84f3dd0314c0f7b2291e5b200ac8c7c3b92584604051611a039190612ed1565b60405180910390a35b50505050565b611a1d838383612463565b505050565b5f7f8b73c3c69bb8fe3d512ecc4cf759cc79239f7b179b0ffacaa9a75d522b39400f7f00000000000000000000000000000000000000000000000000000000000000007f00000000000000000000000000000000000000000000000000000000000000004630604051602001611a9c959493929190613712565b60405160208183030381529060405280519060200120905090565b5f65ffffffffffff8016821115611b08576030826040517f6dfcc650000000000000000000000000000000000000000000000000000000008152600401611aff9291906137a5565b60405180910390fd5b819050919050565b5f60018211611b2157819050611ca5565b5f8290505f600190507001000000000000000000000000000000008210611b5157608082901c9150604081901b90505b680100000000000000008210611b7057604082901c9150602081901b90505b6401000000008210611b8b57602082901c9150601081901b90505b620100008210611ba457601082901c9150600881901b90505b6101008210611bbc57600882901c9150600481901b90505b60108210611bd357600482901c9150600281901b90505b60048210611be357600181901b90505b600181600302901c90506001818581611bff57611bfe6137cc565b5b048201901c90506001818581611c1857611c176137cc565b5b048201901c90506001818581611c3157611c306137cc565b5b048201901c90506001818581611c4a57611c496137cc565b5b048201901c90506001818581611c6357611c626137cc565b5b048201901c90506001818581611c7c57611c7b6137cc565b5b048201901c9050611c9e818581611c9657611c956137cc565b5b048211612511565b8103925050505b919050565b5f825f528160205f2001905092915050565b5f5b81831015611d26575f611cd1848461251c565b90508465ffffffffffff16611ce68783611caa565b5f015f9054906101000a900465ffffffffffff1665ffffffffffff161115611d1057809250611d20565b600181611d1d91906136b8565b93505b50611cbe565b819050949350505050565b5f611d3b826108bb565b9050919050565b8173ffffffffffffffffffffffffffffffffffffffff168373ffffffffffffffffffffffffffffffffffffffff1614158015611d7d57505f81115b15611fad575f73ffffffffffffffffffffffffffffffffffffffff168373ffffffffffffffffffffffffffffffffffffffff1614611e97575f80611e08600a5f8773ffffffffffffffffffffffffffffffffffffffff1673ffffffffffffffffffffffffffffffffffffffff1681526020019081526020015f20612541611e0386612556565b6125c3565b79ffffffffffffffffffffffffffffffffffffffffffffffffffff16915079ffffffffffffffffffffffffffffffffffffffffffffffffffff1691508473ffffffffffffffffffffffffffffffffffffffff167fdec2bacdd2f05b59de34da9b523dff8be42e5e38e818c82fdb0bae774387a7248383604051611e8c9291906137f9565b60405180910390a250505b5f73ffffffffffffffffffffffffffffffffffffffff168273ffffffffffffffffffffffffffffffffffffffff1614611fac575f80611f1d600a5f8673ffffffffffffffffffffffffffffffffffffffff1673ffffffffffffffffffffffffffffffffffffffff1681526020019081526020015f20612602611f1886612556565b6125c3565b79ffffffffffffffffffffffffffffffffffffffffffffffffffff16915079ffffffffffffffffffffffffffffffffffffffffffffffffffff1691508373ffffffffffffffffffffffffffffffffffffffff167fdec2bacdd2f05b59de34da9b523dff8be42e5e38e818c82fdb0bae774387a7248383604051611fa19291906137f9565b60405180910390a250505b5b505050565b5f815f01805490509050919050565b5f63ffffffff8016821115612010576020826040517f6dfcc650000000000000000000000000000000000000000000000000000000008152600401612007929190613859565b60405180910390fd5b819050919050565b5f60085f8373ffffffffffffffffffffffffffffffffffffffff1673ffffffffffffffffffffffffffffffffffffffff1681526020019081526020015f20549050919050565b606060ff5f1b831461207a5761207383612617565b9050612105565b818054612086906134d6565b80601f01602080910402602001604051908101604052809291908181526020018280546120b2906134d6565b80156120fd5780601f106120d4576101008083540402835291602001916120fd565b820191905f5260205f20905b8154815290600101906020018083116120e057829003601f168201915b505050505090505b92915050565b5f6040517f190100000000000000000000000000000000000000000000000000000000000081528360028201528260228201526042812091505092915050565b5f805f7f7fffffffffffffffffffffffffffffff5d576e7357a4501ddfe92f46681b20a0845f1c1115612187575f600385925092509250612228565b5f6001888888886040515f81526020016040526040516121aa9493929190613880565b6020604051602081039080840390855afa1580156121ca573d5f803e3d5ffd5b5050506020604051035190505f73ffffffffffffffffffffffffffffffffffffffff168173ffffffffffffffffffffffffffffffffffffffff160361221b575f60015f801b93509350935050612228565b805f805f1b935093509350505b9450945094915050565b5f6003811115612245576122446138c3565b5b826003811115612258576122576138c3565b5b03156123905760016003811115612272576122716138c3565b5b826003811115612285576122846138c3565b5b036122bc576040517ff645eedf00000000000000000000000000000000000000000000000000000000815260040160405180910390fd5b600260038111156122d0576122cf6138c3565b5b8260038111156122e3576122e26138c3565b5b0361232757805f1c6040517ffce698f700000000000000000000000000000000000000000000000000000000815260040161231e9190612ed1565b60405180910390fd5b60038081111561233a576123396138c3565b5b82600381111561234d5761234c6138c3565b5b0361238f57806040517fd78bce0c0000000000000000000000000000000000000000000000000000000081526004016123869190612f86565b60405180910390fd5b5b5050565b61239c612cda565b825f018263ffffffff16815481106123b7576123b66138f0565b5b905f5260205f20016040518060400160405290815f82015f9054906101000a900465ffffffffffff1665ffffffffffff1665ffffffffffff1681526020015f820160069054906101000a900479ffffffffffffffffffffffffffffffffffffffffffffffffffff1679ffffffffffffffffffffffffffffffffffffffffffffffffffff1679ffffffffffffffffffffffffffffffffffffffffffffffffffff1681525050905092915050565b61246e838383612689565b5f73ffffffffffffffffffffffffffffffffffffffff168373ffffffffffffffffffffffffffffffffffffffff1603612501575f6124aa6106a5565b90505f6124b56128a2565b9050808211156124fe5781816040517f1cb15d260000000000000000000000000000000000000000000000000000000081526004016124f59291906137f9565b60405180910390fd5b50505b61250c8383836128c5565b505050565b5f8115159050919050565b5f600282841861252c919061391d565b82841661253991906136b8565b905092915050565b5f818361254e919061394d565b905092915050565b5f79ffffffffffffffffffffffffffffffffffffffffffffffffffff80168211156125bb5760d0826040517f6dfcc6500000000000000000000000000000000000000000000000000000000081526004016125b29291906139d3565b60405180910390fd5b819050919050565b5f806125f66125d0610a51565b6125e66125dc88611691565b868863ffffffff16565b8761297d9092919063ffffffff16565b91509150935093915050565b5f818361260f91906139fa565b905092915050565b60605f61262383612998565b90505f602067ffffffffffffffff81111561264157612640613506565b5b6040519080825280601f01601f1916602001820160405280156126735781602001600182028036833780820191505090505b5090508181528360208201528092505050919050565b5f73ffffffffffffffffffffffffffffffffffffffff168373ffffffffffffffffffffffffffffffffffffffff16036126d9578060025f8282546126cd91906136b8565b925050819055506127a7565b5f805f8573ffffffffffffffffffffffffffffffffffffffff1673ffffffffffffffffffffffffffffffffffffffff1681526020019081526020015f2054905081811015612762578381836040517fe450d38c000000000000000000000000000000000000000000000000000000008152600401612759939291906135fc565b60405180910390fd5b8181035f808673ffffffffffffffffffffffffffffffffffffffff1673ffffffffffffffffffffffffffffffffffffffff1681526020019081526020015f2081905550505b5f73ffffffffffffffffffffffffffffffffffffffff168273ffffffffffffffffffffffffffffffffffffffff16036127ee578060025f8282540392505081905550612838565b805f808473ffffffffffffffffffffffffffffffffffffffff1673ffffffffffffffffffffffffffffffffffffffff1681526020019081526020015f205f82825401925050819055505b8173ffffffffffffffffffffffffffffffffffffffff168373ffffffffffffffffffffffffffffffffffffffff167fddf252ad1be2c89b69c2b068fc378daa952ba7f163c4a11628f55a4df523b3ef836040516128959190612ed1565b60405180910390a3505050565b5f79ffffffffffffffffffffffffffffffffffffffffffffffffffff8016905090565b5f73ffffffffffffffffffffffffffffffffffffffff168373ffffffffffffffffffffffffffffffffffffffff16036129115761290e600b61260261290984612556565b6125c3565b50505b5f73ffffffffffffffffffffffffffffffffffffffff168273ffffffffffffffffffffffffffffffffffffffff160361295d5761295a600b61254161295584612556565b6125c3565b50505b6129786129698461082c565b6129728461082c565b83611d42565b505050565b5f8061298c855f0185856129e6565b91509150935093915050565b5f8060ff835f1c169050601f8111156129dd576040517fb3512b0c00000000000000000000000000000000000000000000000000000000815260040160405180910390fd5b80915050919050565b5f805f858054905090505f811115612bf2575f612a0f87600184612a0a9190613685565b611caa565b90505f815f015f9054906101000a900465ffffffffffff1690505f825f0160069054906101000a900479ffffffffffffffffffffffffffffffffffffffffffffffffffff1690508765ffffffffffff168265ffffffffffff161115612aa0576040517f2520601d00000000000000000000000000000000000000000000000000000000815260040160405180910390fd5b8765ffffffffffff168265ffffffffffff1603612b0a5786835f0160066101000a81548179ffffffffffffffffffffffffffffffffffffffffffffffffffff021916908379ffffffffffffffffffffffffffffffffffffffffffffffffffff160217905550612be3565b8860405180604001604052808a65ffffffffffff1681526020018979ffffffffffffffffffffffffffffffffffffffffffffffffffff16815250908060018154018082558091505060019003905f5260205f20015f909190919091505f820151815f015f6101000a81548165ffffffffffff021916908365ffffffffffff1602179055506020820151815f0160066101000a81548179ffffffffffffffffffffffffffffffffffffffffffffffffffff021916908379ffffffffffffffffffffffffffffffffffffffffffffffffffff16021790555050505b80879550955050505050612cd2565b8560405180604001604052808765ffffffffffff1681526020018679ffffffffffffffffffffffffffffffffffffffffffffffffffff16815250908060018154018082558091505060019003905f5260205f20015f909190919091505f820151815f015f6101000a81548165ffffffffffff021916908365ffffffffffff1602179055506020820151815f0160066101000a81548179ffffffffffffffffffffffffffffffffffffffffffffffffffff021916908379ffffffffffffffffffffffffffffffffffffffffffffffffffff16021790555050505f8492509250505b935093915050565b60405180604001604052805f65ffffffffffff1681526020015f79ffffffffffffffffffffffffffffffffffffffffffffffffffff1681525090565b5f81519050919050565b5f82825260208201905092915050565b5f5b83811015612d4d578082015181840152602081019050612d32565b5f8484015250505050565b5f601f19601f8301169050919050565b5f612d7282612d16565b612d7c8185612d20565b9350612d8c818560208601612d30565b612d9581612d58565b840191505092915050565b5f6020820190508181035f830152612db88184612d68565b905092915050565b5f80fd5b5f73ffffffffffffffffffffffffffffffffffffffff82169050919050565b5f612ded82612dc4565b9050919050565b612dfd81612de3565b8114612e07575f80fd5b50565b5f81359050612e1881612df4565b92915050565b5f819050919050565b612e3081612e1e565b8114612e3a575f80fd5b50565b5f81359050612e4b81612e27565b92915050565b5f8060408385031215612e6757612e66612dc0565b5b5f612e7485828601612e0a565b9250506020612e8585828601612e3d565b9150509250929050565b5f8115159050919050565b612ea381612e8f565b82525050565b5f602082019050612ebc5f830184612e9a565b92915050565b612ecb81612e1e565b82525050565b5f602082019050612ee45f830184612ec2565b92915050565b5f805f60608486031215612f0157612f00612dc0565b5b5f612f0e86828701612e0a565b9350506020612f1f86828701612e0a565b9250506040612f3086828701612e3d565b9150509250925092565b5f60ff82169050919050565b612f4f81612f3a565b82525050565b5f602082019050612f685f830184612f46565b92915050565b5f819050919050565b612f8081612f6e565b82525050565b5f602082019050612f995f830184612f77565b92915050565b5f60208284031215612fb457612fb3612dc0565b5b5f612fc184828501612e3d565b91505092915050565b5f60208284031215612fdf57612fde612dc0565b5b5f612fec84828501612e0a565b91505092915050565b612ffe81612de3565b82525050565b5f6020820190506130175f830184612ff5565b92915050565b5f63ffffffff82169050919050565b6130358161301d565b82525050565b5f60208201905061304e5f83018461302c565b92915050565b5f7fff0000000000000000000000000000000000000000000000000000000000000082169050919050565b61308881613054565b82525050565b5f81519050919050565b5f82825260208201905092915050565b5f819050602082019050919050565b6130c081612e1e565b82525050565b5f6130d183836130b7565b60208301905092915050565b5f602082019050919050565b5f6130f38261308e565b6130fd8185613098565b9350613108836130a8565b805f5b8381101561313857815161311f88826130c6565b975061312a836130dd565b92505060018101905061310b565b5085935050505092915050565b5f60e0820190506131585f83018a61307f565b818103602083015261316a8189612d68565b9050818103604083015261317e8188612d68565b905061318d6060830187612ec2565b61319a6080830186612ff5565b6131a760a0830185612f77565b81810360c08301526131b981846130e9565b905098975050505050505050565b5f65ffffffffffff82169050919050565b6131e1816131c7565b82525050565b5f6020820190506131fa5f8301846131d8565b92915050565b61320981612f3a565b8114613213575f80fd5b50565b5f8135905061322481613200565b92915050565b61323381612f6e565b811461323d575f80fd5b50565b5f8135905061324e8161322a565b92915050565b5f805f805f8060c0878903121561326e5761326d612dc0565b5b5f61327b89828a01612e0a565b965050602061328c89828a01612e3d565b955050604061329d89828a01612e3d565b94505060606132ae89828a01613216565b93505060806132bf89828a01613240565b92505060a06132d089828a01613240565b9150509295509295509295565b5f805f805f805f60e0888a0312156132f8576132f7612dc0565b5b5f6133058a828b01612e0a565b97505060206133168a828b01612e0a565b96505060406133278a828b01612e3d565b95505060606133388a828b01612e3d565b94505060806133498a828b01613216565b93505060a061335a8a828b01613240565b92505060c061336b8a828b01613240565b91505092959891949750929550565b5f80604083850312156133905761338f612dc0565b5b5f61339d85828601612e0a565b92505060206133ae85828601612e0a565b9150509250929050565b6133c18161301d565b81146133cb575f80fd5b50565b5f813590506133dc816133b8565b92915050565b5f80604083850312156133f8576133f7612dc0565b5b5f61340585828601612e0a565b9250506020613416858286016133ce565b9150509250929050565b613429816131c7565b82525050565b5f79ffffffffffffffffffffffffffffffffffffffffffffffffffff82169050919050565b61345d8161342f565b82525050565b604082015f8201516134775f850182613420565b50602082015161348a6020850182613454565b50505050565b5f6040820190506134a35f830184613463565b92915050565b7f4e487b71000000000000000000000000000000000000000000000000000000005f52602260045260245ffd5b5f60028204905060018216806134ed57607f821691505b602082108103613500576134ff6134a9565b5b50919050565b7f4e487b71000000000000000000000000000000000000000000000000000000005f52604160045260245ffd5b5f6080820190506135465f830187612f77565b6135536020830186612ff5565b6135606040830185612ec2565b61356d6060830184612ec2565b95945050505050565b5f60c0820190506135895f830189612f77565b6135966020830188612ff5565b6135a36040830187612ff5565b6135b06060830186612ec2565b6135bd6080830185612ec2565b6135ca60a0830184612ec2565b979650505050505050565b5f6040820190506135e85f830185612ff5565b6135f56020830184612ff5565b9392505050565b5f60608201905061360f5f830186612ff5565b61361c6020830185612ec2565b6136296040830184612ec2565b949350505050565b5f6040820190506136445f830185612ec2565b61365160208301846131d8565b9392505050565b7f4e487b71000000000000000000000000000000000000000000000000000000005f52601160045260245ffd5b5f61368f82612e1e565b915061369a83612e1e565b92508282039050818111156136b2576136b1613658565b5b92915050565b5f6136c282612e1e565b91506136cd83612e1e565b92508282019050808211156136e5576136e4613658565b5b92915050565b5f6040820190506136fe5f830185612ff5565b61370b6020830184612ec2565b9392505050565b5f60a0820190506137255f830188612f77565b6137326020830187612f77565b61373f6040830186612f77565b61374c6060830185612ec2565b6137596080830184612ff5565b9695505050505050565b5f819050919050565b5f819050919050565b5f61378f61378a61378584613763565b61376c565b612f3a565b9050919050565b61379f81613775565b82525050565b5f6040820190506137b85f830185613796565b6137c56020830184612ec2565b9392505050565b7f4e487b71000000000000000000000000000000000000000000000000000000005f52601260045260245ffd5b5f60408201905061380c5f830185612ec2565b6138196020830184612ec2565b9392505050565b5f819050919050565b5f61384361383e61383984613820565b61376c565b612f3a565b9050919050565b61385381613829565b82525050565b5f60408201905061386c5f83018561384a565b6138796020830184612ec2565b9392505050565b5f6080820190506138935f830187612f77565b6138a06020830186612f46565b6138ad6040830185612f77565b6138ba6060830184612f77565b95945050505050565b7f4e487b71000000000000000000000000000000000000000000000000000000005f52602160045260245ffd5b7f4e487b71000000000000000000000000000000000000000000000000000000005f52603260045260245ffd5b5f61392782612e1e565b915061393283612e1e565b925082613942576139416137cc565b5b828204905092915050565b5f6139578261342f565b91506139628361342f565b9250828203905079ffffffffffffffffffffffffffffffffffffffffffffffffffff81111561399457613993613658565b5b92915050565b5f819050919050565b5f6139bd6139b86139b38461399a565b61376c565b612f3a565b9050919050565b6139cd816139a3565b82525050565b5f6040820190506139e65f8301856139c4565b6139f36020830184612ec2565b9392505050565b5f613a048261342f565b9150613a0f8361342f565b9250828201905079ffffffffffffffffffffffffffffffffffffffffffffffffffff811115613a4157613a40613658565b5b9291505056fea2646970667358221220dd704ecf789a8ce152f191d9cd1c27235e9cb84faa8d6d08c842c4cbbe7891e164736f6c63430008150033",
  "immutableReferences": {
    "4008": [
      {
        "length": 32,
        "start": 4290
      }
    ],
    "4010": [
      {
        "length": 32,
        "start": 4249
      }
    ],
    "4012": [
      {
        "length": 32,
        "start": 4163
      }
    ],
    "4014": [
      {
        "length": 32,
        "start": 6726
      }
    ],
    "4016": [
      {
        "length": 32,
        "start": 6759
      }
    ],
    "4019": [
      {
        "length": 32,
        "start": 5668
      }
    ],
    "4022": [
      {
        "length": 32,
        "start": 5727
      }
    ]
  },
  "source": "// SPDX-License-Identifier: MIT\r\n// Compatible with OpenZeppelin Contracts ^5.0.0\r\npragma solidity ^0.8.21;\r\n\r\nimport \"@openzeppelin/contracts/token/ERC20/ERC20.sol\";\r\nimport \"@openzeppelin/contracts/token/ERC20/extensions/ERC20Burnable.sol\";\r\nimport \"@openzeppelin/contracts/token/ERC20/extensions/ERC20Permit.sol\";\r\nimport \"@openzeppelin/contracts/token/ERC20/extensions/ERC20Votes.sol\";\r\nimport \"@openzeppelin/contracts/access/Ownable.sol\";\r\n\r\ncontract SampleToken is ERC20, ERC20Burnable, Ownable, ERC20Permit, ERC20Votes {\r\n    constructor(address initialOwner)\r\n        ERC20(\"SampleToken\", \"MTK\")\r\n        Ownable(initialOwner)\r\n        ERC20Permit(\"SampleToken\")\r\n    {}\r\n\r\n    function mint(address to, uint256 amount) public onlyOwner {\r\n        _mint(to, amount);\r\n    }\r\n\r\n    // The following functions are overrides required by Solidity.\r\n\r\n    function _update(address from, address to, uint256 value)\r\n        internal\r\n        override(ERC20, ERC20Votes)\r\n    {\r\n        super._update(from, to, value);\r\n    }\r\n\r\n    function nonces(address owner)\r\n        public\r\n        view\r\n        override(ERC20Permit, Nonces)\r\n        returns (uint256)\r\n    {\r\n        return super.nonces(owner);\r\n    }\r\n}",
  "sourcePath": "C:\\projects\\2025\\blockchain-agentic-sample\\dAppsWorkshop-v0\\contracts\\SampleToken.sol",
  "compiler": {
    "name": "solc",
    "version": "0.8.21+commit.d9974bed.Emscripten.clang"
  },
  "schemaVersion": "3.4.16",
  "updatedAt": "2025-03-18T22:59:57.627Z",
  "devdoc": {
    "errors": {
      "CheckpointUnorderedInsertion()": [
        {
          "details": "A value was attempted to be inserted on a past checkpoint."
        }
      ],
      "ECDSAInvalidSignature()": [
        {
          "details": "The signature derives the `address(0)`."
        }
      ],
      "ECDSAInvalidSignatureLength(uint256)": [
        {
          "details": "The signature has an invalid length."
        }
      ],
      "ECDSAInvalidSignatureS(bytes32)": [
        {
          "details": "The signature has an S value that is in the upper half order."
        }
      ],
      "ERC20ExceededSafeSupply(uint256,uint256)": [
        {
          "details": "Total supply cap has been exceeded, introducing a risk of votes overflowing."
        }
      ],
      "ERC20InsufficientAllowance(address,uint256,uint256)": [
        {
          "details": "Indicates a failure with the `spender`s `allowance`. Used in transfers.",
          "params": {
            "allowance": "Amount of tokens a `spender` is allowed to operate with.",
            "needed": "Minimum amount required to perform a transfer.",
            "spender": "Address that may be allowed to operate on tokens without being their owner."
          }
        }
      ],
      "ERC20InsufficientBalance(address,uint256,uint256)": [
        {
          "details": "Indicates an error related to the current `balance` of a `sender`. Used in transfers.",
          "params": {
            "balance": "Current balance for the interacting account.",
            "needed": "Minimum amount required to perform a transfer.",
            "sender": "Address whose tokens are being transferred."
          }
        }
      ],
      "ERC20InvalidApprover(address)": [
        {
          "details": "Indicates a failure with the `approver` of a token to be approved. Used in approvals.",
          "params": {
            "approver": "Address initiating an approval operation."
          }
        }
      ],
      "ERC20InvalidReceiver(address)": [
        {
          "details": "Indicates a failure with the token `receiver`. Used in transfers.",
          "params": {
            "receiver": "Address to which tokens are being transferred."
          }
        }
      ],
      "ERC20InvalidSender(address)": [
        {
          "details": "Indicates a failure with the token `sender`. Used in transfers.",
          "params": {
            "sender": "Address whose tokens are being transferred."
          }
        }
      ],
      "ERC20InvalidSpender(address)": [
        {
          "details": "Indicates a failure with the `spender` to be approved. Used in approvals.",
          "params": {
            "spender": "Address that may be allowed to operate on tokens without being their owner."
          }
        }
      ],
      "ERC2612ExpiredSignature(uint256)": [
        {
          "details": "Permit deadline has expired."
        }
      ],
      "ERC2612InvalidSigner(address,address)": [
        {
          "details": "Mismatched signature."
        }
      ],
      "ERC5805FutureLookup(uint256,uint48)": [
        {
          "details": "Lookup to future votes is not available."
        }
      ],
      "ERC6372InconsistentClock()": [
        {
          "details": "The clock was incorrectly modified."
        }
      ],
      "InvalidAccountNonce(address,uint256)": [
        {
          "details": "The nonce used for an `account` is not the expected current nonce."
        }
      ],
      "OwnableInvalidOwner(address)": [
        {
          "details": "The owner is not a valid owner account. (eg. `address(0)`)"
        }
      ],
      "OwnableUnauthorizedAccount(address)": [
        {
          "details": "The caller account is not authorized to perform an operation."
        }
      ],
      "SafeCastOverflowedUintDowncast(uint8,uint256)": [
        {
          "details": "Value doesn't fit in an uint of `bits` size."
        }
      ],
      "VotesExpiredSignature(uint256)": [
        {
          "details": "The signature used has expired."
        }
      ]
    },
    "events": {
      "Approval(address,address,uint256)": {
        "details": "Emitted when the allowance of a `spender` for an `owner` is set by a call to {approve}. `value` is the new allowance."
      },
      "DelegateChanged(address,address,address)": {
        "details": "Emitted when an account changes their delegate."
      },
      "DelegateVotesChanged(address,uint256,uint256)": {
        "details": "Emitted when a token transfer or delegate change results in changes to a delegate's number of voting units."
      },
      "EIP712DomainChanged()": {
        "details": "MAY be emitted to signal that the domain could have changed."
      },
      "Transfer(address,address,uint256)": {
        "details": "Emitted when `value` tokens are moved from one account (`from`) to another (`to`). Note that `value` may be zero."
      }
    },
    "kind": "dev",
    "methods": {
      "CLOCK_MODE()": {
        "details": "Machine-readable description of the clock as specified in ERC-6372."
      },
      "DOMAIN_SEPARATOR()": {
        "details": "Returns the domain separator used in the encoding of the signature for {permit}, as defined by {EIP712}."
      },
      "allowance(address,address)": {
        "details": "See {IERC20-allowance}."
      },
      "approve(address,uint256)": {
        "details": "See {IERC20-approve}. NOTE: If `value` is the maximum `uint256`, the allowance is not updated on `transferFrom`. This is semantically equivalent to an infinite approval. Requirements: - `spender` cannot be the zero address."
      },
      "balanceOf(address)": {
        "details": "See {IERC20-balanceOf}."
      },
      "burn(uint256)": {
        "details": "Destroys a `value` amount of tokens from the caller. See {ERC20-_burn}."
      },
      "burnFrom(address,uint256)": {
        "details": "Destroys a `value` amount of tokens from `account`, deducting from the caller's allowance. See {ERC20-_burn} and {ERC20-allowance}. Requirements: - the caller must have allowance for ``accounts``'s tokens of at least `value`."
      },
      "checkpoints(address,uint32)": {
        "details": "Get the `pos`-th checkpoint for `account`."
      },
      "clock()": {
        "details": "Clock used for flagging checkpoints. Can be overridden to implement timestamp based checkpoints (and voting), in which case {CLOCK_MODE} should be overridden as well to match."
      },
      "decimals()": {
        "details": "Returns the number of decimals used to get its user representation. For example, if `decimals` equals `2`, a balance of `505` tokens should be displayed to a user as `5.05` (`505 / 10 ** 2`). Tokens usually opt for a value of 18, imitating the relationship between Ether and Wei. This is the default value returned by this function, unless it's overridden. NOTE: This information is only used for _display_ purposes: it in no way affects any of the arithmetic of the contract, including {IERC20-balanceOf} and {IERC20-transfer}."
      },
      "delegate(address)": {
        "details": "Delegates votes from the sender to `delegatee`."
      },
      "delegateBySig(address,uint256,uint256,uint8,bytes32,bytes32)": {
        "details": "Delegates votes from signer to `delegatee`."
      },
      "delegates(address)": {
        "details": "Returns the delegate that `account` has chosen."
      },
      "eip712Domain()": {
        "details": "See {IERC-5267}."
      },
      "getPastTotalSupply(uint256)": {
        "details": "Returns the total supply of votes available at a specific moment in the past. If the `clock()` is configured to use block numbers, this will return the value at the end of the corresponding block. NOTE: This value is the sum of all available votes, which is not necessarily the sum of all delegated votes. Votes that have not been delegated are still part of total supply, even though they would not participate in a vote. Requirements: - `timepoint` must be in the past. If operating using block numbers, the block must be already mined."
      },
      "getPastVotes(address,uint256)": {
        "details": "Returns the amount of votes that `account` had at a specific moment in the past. If the `clock()` is configured to use block numbers, this will return the value at the end of the corresponding block. Requirements: - `timepoint` must be in the past. If operating using block numbers, the block must be already mined."
      },
      "getVotes(address)": {
        "details": "Returns the current amount of votes that `account` has."
      },
      "name()": {
        "details": "Returns the name of the token."
      },
      "numCheckpoints(address)": {
        "details": "Get number of checkpoints for `account`."
      },
      "owner()": {
        "details": "Returns the address of the current owner."
      },
      "permit(address,address,uint256,uint256,uint8,bytes32,bytes32)": {
        "details": "Sets `value` as the allowance of `spender` over ``owner``'s tokens, given ``owner``'s signed approval. IMPORTANT: The same issues {IERC20-approve} has related to transaction ordering also apply here. Emits an {Approval} event. Requirements: - `spender` cannot be the zero address. - `deadline` must be a timestamp in the future. - `v`, `r` and `s` must be a valid `secp256k1` signature from `owner` over the EIP712-formatted function arguments. - the signature must use ``owner``'s current nonce (see {nonces}). For more information on the signature format, see the https://eips.ethereum.org/EIPS/eip-2612#specification[relevant EIP section]. CAUTION: See Security Considerations above."
      },
      "renounceOwnership()": {
        "details": "Leaves the contract without owner. It will not be possible to call `onlyOwner` functions. Can only be called by the current owner. NOTE: Renouncing ownership will leave the contract without an owner, thereby disabling any functionality that is only available to the owner."
      },
      "symbol()": {
        "details": "Returns the symbol of the token, usually a shorter version of the name."
      },
      "totalSupply()": {
        "details": "See {IERC20-totalSupply}."
      },
      "transfer(address,uint256)": {
        "details": "See {IERC20-transfer}. Requirements: - `to` cannot be the zero address. - the caller must have a balance of at least `value`."
      },
      "transferFrom(address,address,uint256)": {
        "details": "See {IERC20-transferFrom}. Skips emitting an {Approval} event indicating an allowance update. This is not required by the ERC. See {xref-ERC20-_approve-address-address-uint256-bool-}[_approve]. NOTE: Does not update the allowance if the current allowance is the maximum `uint256`. Requirements: - `from` and `to` cannot be the zero address. - `from` must have a balance of at least `value`. - the caller must have allowance for ``from``'s tokens of at least `value`."
      },
      "transferOwnership(address)": {
        "details": "Transfers ownership of the contract to a new account (`newOwner`). Can only be called by the current owner."
      }
    },
    "version": 1
  },
  "userdoc": {
    "kind": "user",
    "methods": {},
    "version": 1
  }
}