{
  "contractName": "SampleDemo",
  "abi": [
    {
      "inputs": [],
      "stateMutability": "nonpayable",
      "type": "constructor"
    },
    {
      "inputs": [
        {
          "internalType": "address",
          "name": "",
          "type": "address"
        }
      ],
      "name": "balances",
      "outputs": [
        {
          "internalType": "uint256",
          "name": "",
          "type": "uint256"
        }
      ],
      "stateMutability": "view",
      "type": "function",
      "constant": true
    },
    {
      "inputs": [],
      "name": "name",
      "outputs": [
        {
          "internalType": "string",
          "name": "",
          "type": "string"
        }
      ],
      "stateMutability": "view",
      "type": "function",
      "constant": true
    },
    {
      "inputs": [],
      "name": "totalSupply",
      "outputs": [
        {
          "internalType": "uint256",
          "name": "",
          "type": "uint256"
        }
      ],
      "stateMutability": "view",
      "type": "function",
      "constant": true
    },
    {
      "inputs": [
        {
          "internalType": "address",
          "name": "to",
          "type": "address"
        },
        {
          "internalType": "uint256",
          "name": "amount",
          "type": "uint256"
        }
      ],
      "name": "transfer",
      "outputs": [],
      "stateMutability": "nonpayable",
      "type": "function"
    }
  ],
  "bytecode": "0x60806040526040518060400160405280600a81526020017f53616d706c6544656d6f000000000000000000000000000000000000000000008152505f90816200004991906200030c565b50620f42406001553480156200005d575f80fd5b5060015460025f3373ffffffffffffffffffffffffffffffffffffffff1673ffffffffffffffffffffffffffffffffffffffff1681526020019081526020015f2081905550620003f0565b5f81519050919050565b7f4e487b71000000000000000000000000000000000000000000000000000000005f52604160045260245ffd5b7f4e487b71000000000000000000000000000000000000000000000000000000005f52602260045260245ffd5b5f60028204905060018216806200012457607f821691505b6020821081036200013a5762000139620000df565b5b50919050565b5f819050815f5260205f209050919050565b5f6020601f8301049050919050565b5f82821b905092915050565b5f600883026200019e7fffffffffffffffffffffffffffffffffffffffffffffffffffffffffffffffff8262000161565b620001aa868362000161565b95508019841693508086168417925050509392505050565b5f819050919050565b5f819050919050565b5f620001f4620001ee620001e884620001c2565b620001cb565b620001c2565b9050919050565b5f819050919050565b6200020f83620001d4565b620002276200021e82620001fb565b8484546200016d565b825550505050565b5f90565b6200023d6200022f565b6200024a81848462000204565b505050565b5b818110156200027157620002655f8262000233565b60018101905062000250565b5050565b601f821115620002c0576200028a8162000140565b620002958462000152565b81016020851015620002a5578190505b620002bd620002b48562000152565b8301826200024f565b50505b505050565b5f82821c905092915050565b5f620002e25f1984600802620002c5565b1980831691505092915050565b5f620002fc8383620002d1565b9150826002028217905092915050565b6200031782620000a8565b67ffffffffffffffff811115620003335762000332620000b2565b5b6200033f82546200010c565b6200034c82828562000275565b5f60209050601f83116001811462000382575f84156200036d578287015190505b620003798582620002ef565b865550620003e8565b601f198416620003928662000140565b5f5b82811015620003bb5784890151825560018201915060208501945060208101905062000394565b86831015620003db5784890151620003d7601f891682620002d1565b8355505b6001600288020188555050505b505050505050565b61060080620003fe5f395ff3fe608060405234801561000f575f80fd5b506004361061004a575f3560e01c806306fdde031461004e57806318160ddd1461006c57806327e235e31461008a578063a9059cbb146100ba575b5f80fd5b6100566100d6565b6040516100639190610330565b60405180910390f35b610074610161565b6040516100819190610368565b60405180910390f35b6100a4600480360381019061009f91906103df565b610167565b6040516100b19190610368565b60405180910390f35b6100d460048036038101906100cf9190610434565b61017c565b005b5f80546100e29061049f565b80601f016020809104026020016040519081016040528092919081815260200182805461010e9061049f565b80156101595780601f1061013057610100808354040283529160200191610159565b820191905f5260205f20905b81548152906001019060200180831161013c57829003601f168201915b505050505081565b60015481565b6002602052805f5260405f205f915090505481565b8060025f3373ffffffffffffffffffffffffffffffffffffffff1673ffffffffffffffffffffffffffffffffffffffff1681526020019081526020015f205410156101fc576040517f08c379a00000000000000000000000000000000000000000000000000000000081526004016101f390610519565b60405180910390fd5b8060025f3373ffffffffffffffffffffffffffffffffffffffff1673ffffffffffffffffffffffffffffffffffffffff1681526020019081526020015f205f8282546102489190610564565b925050819055508060025f8473ffffffffffffffffffffffffffffffffffffffff1673ffffffffffffffffffffffffffffffffffffffff1681526020019081526020015f205f82825461029b9190610597565b925050819055505050565b5f81519050919050565b5f82825260208201905092915050565b5f5b838110156102dd5780820151818401526020810190506102c2565b5f8484015250505050565b5f601f19601f8301169050919050565b5f610302826102a6565b61030c81856102b0565b935061031c8185602086016102c0565b610325816102e8565b840191505092915050565b5f6020820190508181035f83015261034881846102f8565b905092915050565b5f819050919050565b61036281610350565b82525050565b5f60208201905061037b5f830184610359565b92915050565b5f80fd5b5f73ffffffffffffffffffffffffffffffffffffffff82169050919050565b5f6103ae82610385565b9050919050565b6103be816103a4565b81146103c8575f80fd5b50565b5f813590506103d9816103b5565b92915050565b5f602082840312156103f4576103f3610381565b5b5f610401848285016103cb565b91505092915050565b61041381610350565b811461041d575f80fd5b50565b5f8135905061042e8161040a565b92915050565b5f806040838503121561044a57610449610381565b5b5f610457858286016103cb565b925050602061046885828601610420565b9150509250929050565b7f4e487b71000000000000000000000000000000000000000000000000000000005f52602260045260245ffd5b5f60028204905060018216806104b657607f821691505b6020821081036104c9576104c8610472565b5b50919050565b7f496e73756666696369656e742062616c616e63650000000000000000000000005f82015250565b5f6105036014836102b0565b915061050e826104cf565b602082019050919050565b5f6020820190508181035f830152610530816104f7565b9050919050565b7f4e487b71000000000000000000000000000000000000000000000000000000005f52601160045260245ffd5b5f61056e82610350565b915061057983610350565b925082820390508181111561059157610590610537565b5b92915050565b5f6105a182610350565b91506105ac83610350565b92508282019050808211156105c4576105c3610537565b5b9291505056fea26469706673582212205734167c06e70275c6afad34d49243fee06b6f4d3e871340c19c48cc17d969ff64736f6c63430008150033",
  "immutableReferences": {},
  "source": "// SPDX-License-Identifier: MIT\r\n// Compatible with OpenZeppelin Contracts ^5.0.0\r\npragma solidity ^0.8.21;\r\ncontract SampleDemo {\r\n    string public name = \"SampleDemo\";\r\n    uint256 public totalSupply = 1000000;\r\n    mapping(address => uint256) public balances;\r\n\r\n    constructor() {\r\n        balances[msg.sender] = totalSupply;\r\n    }\r\n\r\n    function transfer(address to, uint256 amount) external {\r\n        require(balances[msg.sender] >= amount, \"Insufficient balance\");\r\n\r\n        balances[msg.sender] -= amount;\r\n        balances[to] += amount;\r\n    }\r\n}",
  "sourcePath": "C:\\projects\\2025\\blockchain-agentic-sample\\dAppsWorkshop-v0\\contracts\\SampleDemo.sol",
  "compiler": {
    "name": "solc",
    "version": "0.8.21+commit.d9974bed.Emscripten.clang"
  },
  "schemaVersion": "3.4.16",
  "updatedAt": "2025-03-18T23:00:02.200Z",
  "networkType": "ethereum",
  "devdoc": {
    "kind": "dev",
    "methods": {},
    "version": 1
  },
  "userdoc": {
    "kind": "user",
    "methods": {},
    "version": 1
  }
}