{
  "_format": "hh-sol-artifact-1",
  "contractName": "Escrow",
  "sourceName": "contracts/Escrow.sol",
  "abi": [
    {
      "inputs": [
        {
          "internalType": "address payable",
          "name": "_seller",
          "type": "address"
        },
        {
          "internalType": "uint256",
          "name": "_price",
          "type": "uint256"
        }
      ],
      "stateMutability": "nonpayable",
      "type": "constructor"
    },
    {
      "inputs": [],
      "name": "buyer",
      "outputs": [
        {
          "internalType": "address payable",
          "name": "",
          "type": "address"
        }
      ],
      "stateMutability": "view",
      "type": "function"
    },
    {
      "inputs": [],
      "name": "deposit",
      "outputs": [],
      "stateMutability": "payable",
      "type": "function"
    },
    {
      "inputs": [],
      "name": "isPaid",
      "outputs": [
        {
          "internalType": "bool",
          "name": "",
          "type": "bool"
        }
      ],
      "stateMutability": "view",
      "type": "function"
    },
    {
      "inputs": [],
      "name": "price",
      "outputs": [
        {
          "internalType": "uint256",
          "name": "",
          "type": "uint256"
        }
      ],
      "stateMutability": "view",
      "type": "function"
    },
    {
      "inputs": [],
      "name": "releaseFunds",
      "outputs": [],
      "stateMutability": "nonpayable",
      "type": "function"
    },
    {
      "inputs": [],
      "name": "seller",
      "outputs": [
        {
          "internalType": "address payable",
          "name": "",
          "type": "address"
        }
      ],
      "stateMutability": "view",
      "type": "function"
    }
  ],
  "bytecode": "0x608060405234801561001057600080fd5b5060405161065038038061065083398181016040528101906100329190610175565b336000806101000a81548173ffffffffffffffffffffffffffffffffffffffff021916908373ffffffffffffffffffffffffffffffffffffffff16021790555081600160006101000a81548173ffffffffffffffffffffffffffffffffffffffff021916908373ffffffffffffffffffffffffffffffffffffffff160217905550806002819055506000600360006101000a81548160ff02191690831515021790555050506101b5565b600080fd5b600073ffffffffffffffffffffffffffffffffffffffff82169050919050565b600061010c826100e1565b9050919050565b61011c81610101565b811461012757600080fd5b50565b60008151905061013981610113565b92915050565b6000819050919050565b6101528161013f565b811461015d57600080fd5b50565b60008151905061016f81610149565b92915050565b6000806040838503121561018c5761018b6100dc565b5b600061019a8582860161012a565b92505060206101ab85828601610160565b9150509250929050565b61048c806101c46000396000f3fe6080604052600436106100555760003560e01c806308551a531461005a578063209ebc081461008557806369d89575146100b05780637150d8ae146100c7578063a035b1fe146100f2578063d0e30db01461011d575b600080fd5b34801561006657600080fd5b5061006f610127565b60405161007c91906102e8565b60405180910390f35b34801561009157600080fd5b5061009a61014d565b6040516100a7919061031e565b60405180910390f35b3480156100bc57600080fd5b506100c5610160565b005b3480156100d357600080fd5b506100dc61021c565b6040516100e991906102e8565b60405180910390f35b3480156100fe57600080fd5b50610107610240565b6040516101149190610352565b60405180910390f35b610125610246565b005b600160009054906101000a900473ffffffffffffffffffffffffffffffffffffffff1681565b600360009054906101000a900460ff1681565b600360009054906101000a900460ff166101af576040517f08c379a00000000000000000000000000000000000000000000000000000000081526004016101a6906103ca565b60405180910390fd5b600160009054906101000a900473ffffffffffffffffffffffffffffffffffffffff1673ffffffffffffffffffffffffffffffffffffffff166108fc6002549081150290604051600060405180830381858888f19350505050158015610219573d6000803e3d6000fd5b50565b60008054906101000a900473ffffffffffffffffffffffffffffffffffffffff1681565b60025481565b600254341461028a576040517f08c379a000000000000000000000000000000000000000000000000000000000815260040161028190610436565b60405180910390fd5b6001600360006101000a81548160ff021916908315150217905550565b600073ffffffffffffffffffffffffffffffffffffffff82169050919050565b60006102d2826102a7565b9050919050565b6102e2816102c7565b82525050565b60006020820190506102fd60008301846102d9565b92915050565b60008115159050919050565b61031881610303565b82525050565b6000602082019050610333600083018461030f565b92915050565b6000819050919050565b61034c81610339565b82525050565b60006020820190506103676000830184610343565b92915050565b600082825260208201905092915050565b7f5061796d656e74206e6f74206d61646500000000000000000000000000000000600082015250565b60006103b460108361036d565b91506103bf8261037e565b602082019050919050565b600060208201905081810360008301526103e3816103a7565b9050919050565b7f496e636f727265637420616d6f756e742073656e740000000000000000000000600082015250565b600061042060158361036d565b915061042b826103ea565b602082019050919050565b6000602082019050818103600083015261044f81610413565b905091905056fea2646970667358221220a70cfa38a78f95f3b8dabaa18f3b7b4bf497adef80920258fa6382ddbdf5fbfc64736f6c63430008140033",
  "linkReferences": {},
  "deployedLinkReferences": {}
}